{
  "contractName": "Bhagwaan",
  "abi": [
    {
      "inputs": [],
      "payable": false,
      "stateMutability": "nonpayable",
      "type": "constructor",
      "signature": "constructor"
    },
    {
      "constant": true,
      "inputs": [
        {
          "name": "doc",
          "type": "address"
        }
      ],
      "name": "checkDoc",
      "outputs": [
        {
          "name": "",
          "type": "bool"
        }
      ],
      "payable": false,
      "stateMutability": "view",
      "type": "function",
      "signature": "0x151dd18e"
    },
    {
      "constant": false,
      "inputs": [
        {
          "name": "doc",
          "type": "address"
        },
        {
          "name": "pubKey",
          "type": "bytes32"
        }
      ],
      "name": "addDoc",
      "outputs": [],
      "payable": false,
      "stateMutability": "nonpayable",
      "type": "function",
      "signature": "0x5c216878"
    },
    {
      "constant": true,
      "inputs": [
        {
          "name": "doc",
          "type": "address"
        }
      ],
      "name": "getPubKey",
      "outputs": [
        {
          "name": "",
          "type": "bytes32"
        }
      ],
      "payable": false,
      "stateMutability": "view",
      "type": "function",
      "signature": "0xfce9512a"
    }
  ],
  "bytecode": "0x608060405234801561001057600080fd5b50336000806101000a81548173ffffffffffffffffffffffffffffffffffffffff021916908373ffffffffffffffffffffffffffffffffffffffff160217905550610306806100606000396000f3fe608060405234801561001057600080fd5b506004361061005e576000357c010000000000000000000000000000000000000000000000000000000090048063151dd18e146100635780635c216878146100bf578063fce9512a1461010d575b600080fd5b6100a56004803603602081101561007957600080fd5b81019080803573ffffffffffffffffffffffffffffffffffffffff169060200190929190505050610165565b604051808215151515815260200191505060405180910390f35b61010b600480360360408110156100d557600080fd5b81019080803573ffffffffffffffffffffffffffffffffffffffff169060200190929190803590602001909291905050506101bb565b005b61014f6004803603602081101561012357600080fd5b81019080803573ffffffffffffffffffffffffffffffffffffffff169060200190929190505050610221565b6040518082815260200191505060405180910390f35b6000600260008373ffffffffffffffffffffffffffffffffffffffff1673ffffffffffffffffffffffffffffffffffffffff16815260200190815260200160002060009054906101000a900460ff169050919050565b6001600260008473ffffffffffffffffffffffffffffffffffffffff1673ffffffffffffffffffffffffffffffffffffffff16815260200190815260200160002060006101000a81548160ff02191690831515021790555061021d828261027e565b5050565b600061022c82610165565b151561023757600080fd5b600160008373ffffffffffffffffffffffffffffffffffffffff1673ffffffffffffffffffffffffffffffffffffffff168152602001908152602001600020549050919050565b61028782610165565b151561029257600080fd5b80600160008473ffffffffffffffffffffffffffffffffffffffff1673ffffffffffffffffffffffffffffffffffffffff16815260200190815260200160002081905550505056fea165627a7a72305820d500a89d6338de3ed1502744e3bb401bf8948d305f58dfdb9e359f4a33680dab0029",
  "source": "pragma solidity 0.5.3;\n\ncontract Bhagwaan{\n\n    address govt;\n    mapping(address => bytes32) pubKeyDoctor;\n    mapping(address => bool) isDoctor;\n    // address[] public Doctors;\n\n    constructor() public {\n        govt = msg.sender;\n    }\n    // Requires a public getter for array size\n    // function size() public returns (uint) {\n    //     return Doctors.length;\n    // }\n\n    function checkDoc(address doc) public view returns(bool){\n        return isDoctor[doc];\n    }\n\n    function addDoc(address doc, bytes32 pubKey) public {\n        // require(tx.origin==govt);\n        isDoctor[doc] = true;\n        setPubKey(doc, pubKey);\n    }\n\n    function getPubKey(address doc) public view returns(bytes32){\n        require(checkDoc(doc));\n        return pubKeyDoctor[doc];\n    }\n\n    function setPubKey(address doc, bytes32 docPub) private{\n        // require(msg.sender==govt);\n        require(checkDoc(doc));\n        pubKeyDoctor[doc] = docPub;\n    }\n\n}\n",
  "sourcePath": "/home/shikhi/EthCare/Ethereum-Healthcare/contracts/Bhagwaan.sol",
  "compiler": {
    "name": "solc",
    "version": "0.5.3+commit.10d17f24.Emscripten.clang"
  },
  "schemaVersion": "3.0.6",
  "updatedAt": "2019-04-15T20:16:30.517Z",
  "devdoc": {
    "methods": {}
  },
  "userdoc": {
    "methods": {}
  }
}