{
  "contractName": "Bhagwaan",
  "abi": [
    {
      "inputs": [],
      "payable": false,
      "stateMutability": "nonpayable",
      "type": "constructor",
      "signature": "constructor"
    },
    {
      "constant": false,
      "inputs": [
        {
          "name": "doc",
          "type": "address"
        }
      ],
      "name": "checkDoc",
      "outputs": [
        {
          "name": "",
          "type": "bool"
        }
      ],
      "payable": false,
      "stateMutability": "nonpayable",
      "type": "function",
      "signature": "0x151dd18e"
    },
    {
      "constant": false,
      "inputs": [
        {
          "name": "doc",
          "type": "address"
        }
      ],
      "name": "addDoc",
      "outputs": [],
      "payable": false,
      "stateMutability": "nonpayable",
      "type": "function",
      "signature": "0xd18ef553"
    },
    {
      "constant": false,
      "inputs": [
        {
          "name": "doc",
          "type": "address"
        }
      ],
      "name": "getPubKey",
      "outputs": [
        {
          "name": "",
          "type": "bytes32"
        }
      ],
      "payable": false,
      "stateMutability": "nonpayable",
      "type": "function",
      "signature": "0xfce9512a"
    },
    {
      "constant": false,
      "inputs": [
        {
          "name": "doc",
          "type": "address"
        },
        {
          "name": "docPub",
          "type": "bytes32"
        }
      ],
      "name": "setPubKey",
      "outputs": [
        {
          "name": "",
          "type": "bytes32"
        }
      ],
      "payable": false,
      "stateMutability": "nonpayable",
      "type": "function",
      "signature": "0xceae8f3b"
    }
  ],
  "bytecode": "0x608060405234801561001057600080fd5b50336000806101000a81548173ffffffffffffffffffffffffffffffffffffffff021916908373ffffffffffffffffffffffffffffffffffffffff160217905550610418806100606000396000f3fe608060405234801561001057600080fd5b5060043610610069576000357c010000000000000000000000000000000000000000000000000000000090048063151dd18e1461006e578063ceae8f3b146100ca578063d18ef5531461012c578063fce9512a14610170575b600080fd5b6100b06004803603602081101561008457600080fd5b81019080803573ffffffffffffffffffffffffffffffffffffffff1690602001909291905050506101c8565b604051808215151515815260200191505060405180910390f35b610116600480360360408110156100e057600080fd5b81019080803573ffffffffffffffffffffffffffffffffffffffff1690602001909291908035906020019092919050505061021e565b6040518082815260200191505060405180910390f35b61016e6004803603602081101561014257600080fd5b81019080803573ffffffffffffffffffffffffffffffffffffffff1690602001909291905050506102d9565b005b6101b26004803603602081101561018657600080fd5b81019080803573ffffffffffffffffffffffffffffffffffffffff16906020019092919050505061038f565b6040518082815260200191505060405180910390f35b6000600260008373ffffffffffffffffffffffffffffffffffffffff1673ffffffffffffffffffffffffffffffffffffffff16815260200190815260200160002060009054906101000a900460ff169050919050565b60008060009054906101000a900473ffffffffffffffffffffffffffffffffffffffff1673ffffffffffffffffffffffffffffffffffffffff163373ffffffffffffffffffffffffffffffffffffffff1614151561027b57600080fd5b610284836101c8565b151561028f57600080fd5b81600160008573ffffffffffffffffffffffffffffffffffffffff1673ffffffffffffffffffffffffffffffffffffffff1681526020019081526020016000208190555092915050565b6000809054906101000a900473ffffffffffffffffffffffffffffffffffffffff1673ffffffffffffffffffffffffffffffffffffffff163373ffffffffffffffffffffffffffffffffffffffff1614151561033457600080fd5b6001600260008373ffffffffffffffffffffffffffffffffffffffff1673ffffffffffffffffffffffffffffffffffffffff16815260200190815260200160002060006101000a81548160ff02191690831515021790555050565b600061039a826101c8565b15156103a557600080fd5b600160008373ffffffffffffffffffffffffffffffffffffffff1673ffffffffffffffffffffffffffffffffffffffff16815260200190815260200160002054905091905056fea165627a7a72305820059e6accb1f66c487e7621748d7274366f44cc685dd3cf9587260f2363ae3ee00029",
  "source": "pragma solidity 0.5.3;\n\ncontract Bhagwaan{\n\n    address govt;\n    mapping(address => bytes32) pubKeyDoctor;\n    mapping(address => bool) isDoctor;\n    // address[] public Doctors;\n\n    constructor() public {\n        govt = msg.sender;\n    }\n    // Requires a public getter for array size\n    // function size() public returns (uint) {\n    //     return Doctors.length;\n    // }\n\n    function checkDoc(address doc) public returns(bool){\n        return isDoctor[doc];\n    }\n\n    function addDoc(address doc) public {\n        require(msg.sender==govt);\n        isDoctor[doc] = true;\n    }\n\n    function getPubKey(address doc) public returns(bytes32){\n        require(checkDoc(doc));\n        return pubKeyDoctor[doc];\n    }\n\n    function setPubKey(address doc, bytes32 docPub) public returns(bytes32){\n        require(msg.sender==govt);\n        require(checkDoc(doc));\n        pubKeyDoctor[doc] = docPub;\n    }\n\n}\n",
  "sourcePath": "/home/shikhi/EthCare/Ethereum-Healthcare/contracts/Bhagwaan.sol",
  "compiler": {
    "name": "solc",
    "version": "0.5.3+commit.10d17f24.Emscripten.clang"
  },
  "schemaVersion": "3.0.6",
  "updatedAt": "2019-04-15T09:35:29.285Z",
  "devdoc": {
    "methods": {}
  },
  "userdoc": {
    "methods": {}
  }
}