{
  "contractName": "Bhagwaan",
  "abi": [
    {
      "inputs": [],
      "payable": false,
      "stateMutability": "nonpayable",
      "type": "constructor",
      "signature": "constructor"
    },
    {
      "constant": true,
      "inputs": [
        {
          "name": "doc",
          "type": "address"
        }
      ],
      "name": "checkDoc",
      "outputs": [
        {
          "name": "",
          "type": "bool"
        }
      ],
      "payable": false,
      "stateMutability": "view",
      "type": "function",
      "signature": "0x151dd18e"
    },
    {
      "constant": false,
      "inputs": [
        {
          "name": "doc",
          "type": "address"
        },
        {
          "name": "pubKey",
          "type": "string"
        }
      ],
      "name": "addDoc",
      "outputs": [],
      "payable": false,
      "stateMutability": "nonpayable",
      "type": "function",
      "signature": "0x572d7689"
    },
    {
      "constant": true,
      "inputs": [
        {
          "name": "doc",
          "type": "address"
        }
      ],
      "name": "getPubKey",
      "outputs": [
        {
          "name": "",
          "type": "string"
        }
      ],
      "payable": false,
      "stateMutability": "view",
      "type": "function",
      "signature": "0xfce9512a"
    }
  ],
  "bytecode": "0x608060405234801561001057600080fd5b50336000806101000a81548173ffffffffffffffffffffffffffffffffffffffff021916908373ffffffffffffffffffffffffffffffffffffffff160217905550610545806100606000396000f3fe608060405234801561001057600080fd5b506004361061005e576000357c010000000000000000000000000000000000000000000000000000000090048063151dd18e14610063578063572d7689146100bf578063fce9512a1461019a575b600080fd5b6100a56004803603602081101561007957600080fd5b81019080803573ffffffffffffffffffffffffffffffffffffffff169060200190929190505050610257565b604051808215151515815260200191505060405180910390f35b610198600480360360408110156100d557600080fd5b81019080803573ffffffffffffffffffffffffffffffffffffffff1690602001909291908035906020019064010000000081111561011257600080fd5b82018360208201111561012457600080fd5b8035906020019184600183028401116401000000008311171561014657600080fd5b91908080601f016020809104026020016040519081016040528093929190818152602001838380828437600081840152601f19601f8201169050808301925050505050505091929192905050506102ad565b005b6101dc600480360360208110156101b057600080fd5b81019080803573ffffffffffffffffffffffffffffffffffffffff169060200190929190505050610313565b6040518080602001828103825283818151815260200191508051906020019080838360005b8381101561021c578082015181840152602081019050610201565b50505050905090810190601f1680156102495780820380516001836020036101000a031916815260200191505b509250505060405180910390f35b6000600260008373ffffffffffffffffffffffffffffffffffffffff1673ffffffffffffffffffffffffffffffffffffffff16815260200190815260200160002060009054906101000a900460ff169050919050565b6001600260008473ffffffffffffffffffffffffffffffffffffffff1673ffffffffffffffffffffffffffffffffffffffff16815260200190815260200160002060006101000a81548160ff02191690831515021790555061030f8282610408565b5050565b606061031e82610257565b151561032957600080fd5b600160008373ffffffffffffffffffffffffffffffffffffffff1673ffffffffffffffffffffffffffffffffffffffff1681526020019081526020016000208054600181600116156101000203166002900480601f0160208091040260200160405190810160405280929190818152602001828054600181600116156101000203166002900480156103fc5780601f106103d1576101008083540402835291602001916103fc565b820191906000526020600020905b8154815290600101906020018083116103df57829003601f168201915b50505050509050919050565b61041182610257565b151561041c57600080fd5b80600160008473ffffffffffffffffffffffffffffffffffffffff1673ffffffffffffffffffffffffffffffffffffffff168152602001908152602001600020908051906020019061046f929190610474565b505050565b828054600181600116156101000203166002900490600052602060002090601f016020900481019282601f106104b557805160ff19168380011785556104e3565b828001600101855582156104e3579182015b828111156104e25782518255916020019190600101906104c7565b5b5090506104f091906104f4565b5090565b61051691905b808211156105125760008160009055506001016104fa565b5090565b9056fea165627a7a7230582033c0324d9c3bd7ef65e2474968a9881aab14673166c167fb7938c54a6ab156f20029",
  "source": "pragma solidity 0.5.3;\n\ncontract Bhagwaan{\n\n    address govt;\n    mapping(address => string) pubKeyDoctor;\n    mapping(address => bool) isDoctor;\n    // address[] public Doctors;\n\n    constructor() public {\n        govt = msg.sender;\n    }\n    // Requires a public getter for array size\n    // function size() public returns (uint) {\n    //     return Doctors.length;\n    // }\n\n    function checkDoc(address doc) public view returns(bool){\n        return isDoctor[doc];\n    }\n\n    function addDoc(address doc, string memory pubKey) public {\n        // require(tx.origin==govt);\n        isDoctor[doc] = true;\n        setPubKey(doc, pubKey);\n    }\n\n    function getPubKey(address doc) public view returns(string memory){\n        require(checkDoc(doc));\n        return pubKeyDoctor[doc];\n    }\n\n    function setPubKey(address doc, string memory docPub) private{\n        // require(msg.sender==govt);\n        require(checkDoc(doc));\n        pubKeyDoctor[doc] = docPub;\n    }\n\n}\n",
  "sourcePath": "/home/prakhar/Documents/cs731/Ethereum-Healthcare/contracts/Bhagwaan.sol",
  "compiler": {
    "name": "solc",
    "version": "0.5.3+commit.10d17f24.Emscripten.clang"
  },
  "schemaVersion": "3.0.3",
  "updatedAt": "2019-04-16T05:03:39.444Z",
  "devdoc": {
    "methods": {}
  },
  "userdoc": {
    "methods": {}
  }
}