{
  "contractName": "Doctor",
  "abi": [
    {
      "inputs": [],
      "payable": true,
      "stateMutability": "payable",
      "type": "constructor",
      "signature": "constructor"
    },
    {
      "constant": false,
      "inputs": [],
      "name": "kill",
      "outputs": [],
      "payable": false,
      "stateMutability": "nonpayable",
      "type": "function",
      "signature": "0x41c0e1b5"
    },
    {
      "constant": false,
      "inputs": [
        {
          "name": "pat",
          "type": "address"
        },
        {
          "name": "hashvalue",
          "type": "bytes32"
        }
      ],
      "name": "commitprescription",
      "outputs": [],
      "payable": false,
      "stateMutability": "nonpayable",
      "type": "function",
      "signature": "0x3ebe0092"
    }
  ],
  "bytecode": "0x6080604052336000806101000a81548173ffffffffffffffffffffffffffffffffffffffff021916908373ffffffffffffffffffffffffffffffffffffffff1602179055506101e1806100536000396000f3fe608060405234801561001057600080fd5b5060043610610053576000357c0100000000000000000000000000000000000000000000000000000000900480633ebe00921461005857806341c0e1b5146100a6575b600080fd5b6100a46004803603604081101561006e57600080fd5b81019080803573ffffffffffffffffffffffffffffffffffffffff169060200190929190803590602001909291905050506100b0565b005b6100ae610141565b005b60008290508073ffffffffffffffffffffffffffffffffffffffff16632bb60ac1836040518263ffffffff167c010000000000000000000000000000000000000000000000000000000002815260040180828152602001915050600060405180830381600087803b15801561012457600080fd5b505af1158015610138573d6000803e3d6000fd5b50505050505050565b6000809054906101000a900473ffffffffffffffffffffffffffffffffffffffff1673ffffffffffffffffffffffffffffffffffffffff163373ffffffffffffffffffffffffffffffffffffffff1614151561019c57600080fd5b3373ffffffffffffffffffffffffffffffffffffffff16fffea165627a7a72305820bff61690f2512a2c3950f36a2d9983f35c8678978d6fcde0ccc3cac1457706f50029",
  "source": "pragma solidity 0.5.3;\nimport \"./Bhagwaan.sol\";\nimport \"./Patient.sol\";\n\n\ncontract AbstractPatient{\n    function pushHash(bytes32) public;\n}\n\ncontract Doctor {\n    //Address of the school administrator\n    address user;\n    mapping(address => bool) isPatient;\n\n\n\n    constructor() public payable{\n        user=msg.sender;\n    }\n\n    function kill() public{\n        require(msg.sender == user);\n            selfdestruct(msg.sender);\n    }\n\n    function commitprescription(address pat, bytes32 hashvalue) public{\n        // Patient.pushhash()///call push hash function uswing given address\n        AbstractPatient my_a = AbstractPatient(pat);\n        my_a.pushHash(hashvalue);\n    }\n}\n",
  "sourcePath": "/home/shikhi/EthCare/pet-shop/contracts/Doctor.sol",
  "compiler": {
    "name": "solc",
    "version": "0.5.3+commit.10d17f24.Emscripten.clang"
  },
  "schemaVersion": "3.0.6",
  "updatedAt": "2019-04-14T10:56:14.211Z",
  "devdoc": {
    "methods": {}
  },
  "userdoc": {
    "methods": {}
  }
}