{
  "contractName": "DoctorGen",
  "abi": [
    {
      "inputs": [
        {
          "name": "bhagwaanadd",
          "type": "address"
        }
      ],
      "payable": true,
      "stateMutability": "payable",
      "type": "constructor",
      "signature": "constructor"
    },
    {
      "constant": true,
      "inputs": [],
      "name": "getDoctorCount",
      "outputs": [
        {
          "name": "doccount",
          "type": "uint256"
        }
      ],
      "payable": false,
      "stateMutability": "view",
      "type": "function",
      "signature": "0x79111c1c"
    },
    {
      "constant": false,
      "inputs": [
        {
          "name": "docAcc",
          "type": "address"
        },
        {
          "name": "pubKey",
          "type": "string"
        }
      ],
      "name": "newDoctor",
      "outputs": [
        {
          "name": "newContract",
          "type": "address"
        }
      ],
      "payable": false,
      "stateMutability": "nonpayable",
      "type": "function",
      "signature": "0x4d751adf"
    },
    {
      "constant": true,
      "inputs": [],
      "name": "getLastAddress",
      "outputs": [
        {
          "name": "latestContract",
          "type": "address"
        }
      ],
      "payable": false,
      "stateMutability": "view",
      "type": "function",
      "signature": "0x71a2ee52"
    }
  ],
  "bytecode": "0x60806040526040516020806116218339810180604052602081101561002357600080fd5b810190808051906020019092919050505033600260006101000a81548173ffffffffffffffffffffffffffffffffffffffff021916908373ffffffffffffffffffffffffffffffffffffffff16021790555080600160006101000a81548173ffffffffffffffffffffffffffffffffffffffff021916908373ffffffffffffffffffffffffffffffffffffffff1602179055505061155b806100c66000396000f3fe608060405234801561001057600080fd5b506004361061005e576000357c0100000000000000000000000000000000000000000000000000000000900480634d751adf1461006357806371a2ee521461017e57806379111c1c146101c8575b600080fd5b61013c6004803603604081101561007957600080fd5b81019080803573ffffffffffffffffffffffffffffffffffffffff169060200190929190803590602001906401000000008111156100b657600080fd5b8201836020820111156100c857600080fd5b803590602001918460018302840111640100000000831117156100ea57600080fd5b91908080601f016020809104026020016040519081016040528093929190818152602001838380828437600081840152601f19601f8201169050808301925050505050505091929192905050506101e6565b604051808273ffffffffffffffffffffffffffffffffffffffff1673ffffffffffffffffffffffffffffffffffffffff16815260200191505060405180910390f35b6101866105da565b604051808273ffffffffffffffffffffffffffffffffffffffff1673ffffffffffffffffffffffffffffffffffffffff16815260200191505060405180910390f35b6101d0610622565b6040518082815260200191505060405180910390f35b6000600260009054906101000a900473ffffffffffffffffffffffffffffffffffffffff1673ffffffffffffffffffffffffffffffffffffffff163373ffffffffffffffffffffffffffffffffffffffff161415156102ad576040517f08c379a000000000000000000000000000000000000000000000000000000000815260040180806020018281038252600e8152602001807f6e6f7420676f7665726e6d656e7400000000000000000000000000000000000081525060200191505060405180910390fd5b600080905060008090505b600380549050811015610344576003818154811015156102d457fe5b9060005260206000200160009054906101000a900473ffffffffffffffffffffffffffffffffffffffff1673ffffffffffffffffffffffffffffffffffffffff168573ffffffffffffffffffffffffffffffffffffffff16141561033757600191505b80806001019150506102b8565b508015156105ce5760008460405161035b9061062e565b808273ffffffffffffffffffffffffffffffffffffffff1673ffffffffffffffffffffffffffffffffffffffff168152602001915050604051809103906000f0801580156103ad573d6000803e3d6000fd5b5090506000600160009054906101000a900473ffffffffffffffffffffffffffffffffffffffff1690508073ffffffffffffffffffffffffffffffffffffffff1663572d768983876040518363ffffffff167c0100000000000000000000000000000000000000000000000000000000028152600401808373ffffffffffffffffffffffffffffffffffffffff1673ffffffffffffffffffffffffffffffffffffffff16815260200180602001828103825283818151815260200191508051906020019080838360005b83811015610492578082015181840152602081019050610477565b50505050905090810190601f1680156104bf5780820380516001836020036101000a031916815260200191505b509350505050600060405180830381600087803b1580156104df57600080fd5b505af11580156104f3573d6000803e3d6000fd5b5050505060008290806001815401808255809150509060018203906000526020600020016000909192909190916101000a81548173ffffffffffffffffffffffffffffffffffffffff021916908373ffffffffffffffffffffffffffffffffffffffff1602179055505060038690806001815401808255809150509060018203906000526020600020016000909192909190916101000a81548173ffffffffffffffffffffffffffffffffffffffff021916908373ffffffffffffffffffffffffffffffffffffffff160217905550508193505050506105d4565b60009150505b92915050565b6000806001600080549050038154811015156105f257fe5b9060005260206000200160009054906101000a900473ffffffffffffffffffffffffffffffffffffffff16905090565b60008080549050905090565b610ef48061063c8339019056fe6080604052604051602080610ef48339810180604052602081101561002357600080fd5b8101908080519060200190929190505050806000806101000a81548173ffffffffffffffffffffffffffffffffffffffff021916908373ffffffffffffffffffffffffffffffffffffffff16021790555050610e70806100846000396000f3fe608060405234801561001057600080fd5b50600436106100a5576000357c0100000000000000000000000000000000000000000000000000000000900480636795814a116100785780636795814a146101fb5780637d0d625714610269578063a19dcda7146102ad578063db66c0601461036a576100a5565b806323428780146100aa57806333933fd1146100c85780633ebe0092146101a357806341c0e1b5146101f1575b600080fd5b6100b2610445565b6040518082815260200191505060405180910390f35b6101a1600480360360408110156100de57600080fd5b81019080803573ffffffffffffffffffffffffffffffffffffffff1690602001909291908035906020019064010000000081111561011b57600080fd5b82018360208201111561012d57600080fd5b8035906020019184600183028401116401000000008311171561014f57600080fd5b91908080601f016020809104026020016040519081016040528093929190818152602001838380828437600081840152601f19601f820116905080830192505050505050509192919290505050610452565b005b6101ef600480360360408110156101b957600080fd5b81019080803573ffffffffffffffffffffffffffffffffffffffff169060200190929190803590602001909291905050506105f1565b005b6101f9610807565b005b6102276004803603602081101561021157600080fd5b810190808035906020019092919050505061087b565b604051808273ffffffffffffffffffffffffffffffffffffffff1673ffffffffffffffffffffffffffffffffffffffff16815260200191505060405180910390f35b6102ab6004803603602081101561027f57600080fd5b81019080803573ffffffffffffffffffffffffffffffffffffffff1690602001909291905050506109b8565b005b6102ef600480360360208110156102c357600080fd5b81019080803573ffffffffffffffffffffffffffffffffffffffff169060200190929190505050610a99565b6040518080602001828103825283818151815260200191508051906020019080838360005b8381101561032f578082015181840152602081019050610314565b50505050905090810190601f16801561035c5780820380516001836020036101000a031916815260200191505b509250505060405180910390f35b6104436004803603604081101561038057600080fd5b81019080803573ffffffffffffffffffffffffffffffffffffffff169060200190929190803590602001906401000000008111156103bd57600080fd5b8201836020820111156103cf57600080fd5b803590602001918460018302840111640100000000831117156103f157600080fd5b91908080601f016020809104026020016040519081016040528093929190818152602001838380828437600081840152601f19601f820116905080830192505050505050509192919290505050610b7a565b005b6000600380549050905090565b8173ffffffffffffffffffffffffffffffffffffffff163373ffffffffffffffffffffffffffffffffffffffff161415156104d8576040517f08c379a0000000000000000000000000000000000000000000000000000000008152600401808060200182810382526029815260200180610e1c6029913960400191505060405180910390fd5b600160008373ffffffffffffffffffffffffffffffffffffffff1673ffffffffffffffffffffffffffffffffffffffff16815260200190815260200160002060009054906101000a900460ff161515610599576040517f08c379a00000000000000000000000000000000000000000000000000000000081526004018080602001828103825260188152602001807f70617469656e7420646f6573206e6f74206578697374732e000000000000000081525060200191505060405180910390fd5b80600260008473ffffffffffffffffffffffffffffffffffffffff1673ffffffffffffffffffffffffffffffffffffffff16815260200190815260200160002090805190602001906105ec929190610d51565b505050565b6000809054906101000a900473ffffffffffffffffffffffffffffffffffffffff1673ffffffffffffffffffffffffffffffffffffffff163373ffffffffffffffffffffffffffffffffffffffff161415156106b5576040517f08c379a00000000000000000000000000000000000000000000000000000000081526004018080602001828103825260168152602001807f4f6e6c7920646f63746f722063616e20636f6d6d69740000000000000000000081525060200191505060405180910390fd5b600160008373ffffffffffffffffffffffffffffffffffffffff1673ffffffffffffffffffffffffffffffffffffffff16815260200190815260200160002060009054906101000a900460ff161515610776576040517f08c379a00000000000000000000000000000000000000000000000000000000081526004018080602001828103825260188152602001807f4e6f7420796f75722070617469656e7420617373686f6c65000000000000000081525060200191505060405180910390fd5b60008290508073ffffffffffffffffffffffffffffffffffffffff16632bb60ac1836040518263ffffffff167c010000000000000000000000000000000000000000000000000000000002815260040180828152602001915050600060405180830381600087803b1580156107ea57600080fd5b505af11580156107fe573d6000803e3d6000fd5b50505050505050565b6000809054906101000a900473ffffffffffffffffffffffffffffffffffffffff1673ffffffffffffffffffffffffffffffffffffffff163373ffffffffffffffffffffffffffffffffffffffff1614151561086257600080fd5b3373ffffffffffffffffffffffffffffffffffffffff16ff5b60006001600060038481548110151561089057fe5b9060005260206000200160009054906101000a900473ffffffffffffffffffffffffffffffffffffffff1673ffffffffffffffffffffffffffffffffffffffff1673ffffffffffffffffffffffffffffffffffffffff16815260200190815260200160002060009054906101000a900460ff161515610977576040517f08c379a000000000000000000000000000000000000000000000000000000000815260040180806020018281038252601d8152602001807f50617469656e74206e6f206c6f6e6765722061636365737369626c652e00000081525060200191505060405180910390fd5b60038281548110151561098657fe5b9060005260206000200160009054906101000a900473ffffffffffffffffffffffffffffffffffffffff169050919050565b8073ffffffffffffffffffffffffffffffffffffffff163373ffffffffffffffffffffffffffffffffffffffff16141515610a3e576040517f08c379a0000000000000000000000000000000000000000000000000000000008152600401808060200182810382526025815260200180610df76025913960400191505060405180910390fd5b6000600160008373ffffffffffffffffffffffffffffffffffffffff1673ffffffffffffffffffffffffffffffffffffffff16815260200190815260200160002060006101000a81548160ff02191690831515021790555050565b6060600260008373ffffffffffffffffffffffffffffffffffffffff1673ffffffffffffffffffffffffffffffffffffffff1681526020019081526020016000208054600181600116156101000203166002900480601f016020809104026020016040519081016040528092919081815260200182805460018160011615610100020316600290048015610b6e5780601f10610b4357610100808354040283529160200191610b6e565b820191906000526020600020905b815481529060010190602001808311610b5157829003601f168201915b50505050509050919050565b600160008373ffffffffffffffffffffffffffffffffffffffff1673ffffffffffffffffffffffffffffffffffffffff16815260200190815260200160002060009054906101000a900460ff16151515610c3c576040517f08c379a00000000000000000000000000000000000000000000000000000000081526004018080602001828103825260168152602001807f70617469656e7420616c72656164792061646465642e0000000000000000000081525060200191505060405180910390fd5b60038290806001815401808255809150509060018203906000526020600020016000909192909190916101000a81548173ffffffffffffffffffffffffffffffffffffffff021916908373ffffffffffffffffffffffffffffffffffffffff1602179055505060018060008473ffffffffffffffffffffffffffffffffffffffff1673ffffffffffffffffffffffffffffffffffffffff16815260200190815260200160002060006101000a81548160ff02191690831515021790555080600260008473ffffffffffffffffffffffffffffffffffffffff1673ffffffffffffffffffffffffffffffffffffffff1681526020019081526020016000209080519060200190610d4c929190610d51565b505050565b828054600181600116156101000203166002900490600052602060002090601f016020900481019282601f10610d9257805160ff1916838001178555610dc0565b82800160010185558215610dc0579182015b82811115610dbf578251825591602001919060010190610da4565b5b509050610dcd9190610dd1565b5090565b610df391905b80821115610def576000816000905550600101610dd7565b5090565b9056fe4f6e6c792070617469656e742063616e2072656d6f76652068696d2f6865722073656c662e4f6e6c792070617469656e742063616e20757064617465206b65792076616c756520696e20646f632ea165627a7a7230582046ea50c490d02020b7199ffc20a32d62e7710e6b7edd66cefde084a061a3b3070029a165627a7a72305820668f712005290ebf8c32f7e7f9d04e42699ddd9401bb20cac6df31305af14db40029",
  "source": "pragma solidity 0.5.3;\nimport \"./Bhagwaan.sol\";\nimport \"./Patientgen.sol\";\n\n\n// contract AbstractPatient{\n//     function pushHash(bytes32) public;\n// }\n\ncontract DoctorGen{\n  address[] contracts;\n  address bhagw;\n  address govt;\n  address[] contractUsers;\n\n  constructor(address bhagwaanadd) public payable{\n    govt=msg.sender;\n    bhagw = bhagwaanadd;\n  }\n\n  function getDoctorCount() public view returns(uint doccount){\n    return contracts.length;\n  }\n\n  function newDoctor(address docAcc, string memory pubKey) public returns (address newContract){\n    require(msg.sender == govt,\"not government\");\n    bool userFound = false;\n    for (uint i=0; i<contractUsers.length; i++) {\n          if (docAcc == contractUsers[i]){\n              userFound = true;\n          }\n    }\n    if (!userFound) {\n      Doctor d = new Doctor(docAcc);\n      Bhagwaan bh = Bhagwaan(bhagw);\n      bh.addDoc(address(d), pubKey);\n      contracts.push(address(d));\n      contractUsers.push(docAcc);\n      return address(d);\n    }\n    else return address(0);\n  }\n\n  function getLastAddress() public view returns(address latestContract){\n    return contracts[contracts.length-1];\n  }\n}\n\ncontract Doctor {\n    //Address of the school administrator\n    address user;\n    mapping(address => bool) isPatient;\n    mapping(address => string) patientKeys;\n    address[] myPatients;\n\n    constructor(address docAcc) public payable{\n        user=docAcc;\n    }\n\n    function kill() public{\n        require(msg.sender == user);\n            selfdestruct(msg.sender);\n    }\n\n    function commitprescription(address pat, bytes32 hashvalue) public{\n        // Patient.pushhash()///call push hash function uswing given address\n        require(msg.sender==user, \"Only doctor can commit\");\n        require(isPatient[pat], \"Not your patient asshole\");\n        Patient my_a = Patient(pat);\n        my_a.pushHash(hashvalue);\n    }\n\n    function addPatient(address patient, string memory encryptedKey) public{\n        require(!isPatient[patient], \"patient already added.\");\n        myPatients.push(patient);\n        isPatient[patient] = true;\n        patientKeys[patient] = encryptedKey;\n    }\n\n    function removePatient(address patient) public {\n        require(msg.sender == patient, \"Only patient can remove him/her self.\");\n        isPatient[patient] = false;\n    }\n\n    function updatePatientKey(address patient, string memory keyValue) public{\n        require(msg.sender == patient, \"Only patient can update key value in doc.\");\n        require(isPatient[patient], \"patient does not exists.\");\n        patientKeys[patient] = keyValue;\n    }\n\n    function getAllowedPatientsNum() public view returns(uint){\n        return myPatients.length;\n    }\n\n    function getAllowedPatientByIndex(uint i) public view returns (address){\n        require(isPatient[myPatients[i]], \"Patient no longer accessible.\");\n        return myPatients[i];\n    }\n\n    function getPatientKey(address patAddress) public view returns(string memory){\n        return patientKeys[patAddress];\n    }\n}\n",
  "sourcePath": "/home/prakhar/Documents/cs731/Ethereum-Healthcare/contracts/Doctor.sol",
  "compiler": {
    "name": "solc",
    "version": "0.5.3+commit.10d17f24.Emscripten.clang"
  },
  "schemaVersion": "3.0.3",
  "updatedAt": "2019-04-16T05:03:39.448Z",
  "devdoc": {
    "methods": {}
  },
  "userdoc": {
    "methods": {}
  }
}