{
  "contractName": "Doctor",
  "abi": [
    {
      "inputs": [
        {
          "name": "docAcc",
          "type": "address"
        }
      ],
      "payable": true,
      "stateMutability": "payable",
      "type": "constructor"
    },
    {
      "constant": false,
      "inputs": [],
      "name": "kill",
      "outputs": [],
      "payable": false,
      "stateMutability": "nonpayable",
      "type": "function"
    },
    {
      "constant": false,
      "inputs": [
        {
          "name": "pat",
          "type": "address"
        },
        {
          "name": "hashvalue",
          "type": "bytes32"
        }
      ],
      "name": "commitprescription",
      "outputs": [],
      "payable": false,
      "stateMutability": "nonpayable",
      "type": "function"
    },
    {
      "constant": false,
      "inputs": [
        {
          "name": "patient",
          "type": "address"
        },
        {
          "name": "encryptedKey",
          "type": "bytes32"
        }
      ],
      "name": "addPatient",
      "outputs": [],
      "payable": false,
      "stateMutability": "nonpayable",
      "type": "function"
    },
    {
      "constant": false,
      "inputs": [
        {
          "name": "patient",
          "type": "address"
        }
      ],
      "name": "removePatient",
      "outputs": [],
      "payable": false,
      "stateMutability": "nonpayable",
      "type": "function"
    },
    {
      "constant": false,
      "inputs": [
        {
          "name": "patient",
          "type": "address"
        },
        {
          "name": "keyValue",
          "type": "bytes32"
        }
      ],
      "name": "updatePatientKey",
      "outputs": [],
      "payable": false,
      "stateMutability": "nonpayable",
      "type": "function"
    },
    {
      "constant": true,
      "inputs": [],
      "name": "getAllowedPatientsNum",
      "outputs": [
        {
          "name": "",
          "type": "uint256"
        }
      ],
      "payable": false,
      "stateMutability": "view",
      "type": "function"
    },
    {
      "constant": true,
      "inputs": [
        {
          "name": "i",
          "type": "uint256"
        }
      ],
      "name": "getAllowedPatientByIndex",
      "outputs": [
        {
          "name": "",
          "type": "address"
        }
      ],
      "payable": false,
      "stateMutability": "view",
      "type": "function"
    },
    {
      "constant": false,
      "inputs": [
        {
          "name": "patAddress",
          "type": "address"
        }
      ],
      "name": "getPatientKey",
      "outputs": [
        {
          "name": "",
          "type": "bytes32"
        }
      ],
      "payable": false,
      "stateMutability": "nonpayable",
      "type": "function"
    }
  ],
  "bytecode": "0x6080604052604051602080610c188339810180604052602081101561002357600080fd5b8101908080519060200190929190505050806000806101000a81548173ffffffffffffffffffffffffffffffffffffffff021916908373ffffffffffffffffffffffffffffffffffffffff16021790555050610b94806100846000396000f3fe608060405234801561001057600080fd5b50600436106100a5576000357c0100000000000000000000000000000000000000000000000000000000900480636795814a116100785780636795814a1461016e5780637d0d6257146101dc5780637fd35db714610220578063a19dcda71461026e576100a5565b806323428780146100aa5780633ebe0092146100c857806341c0e1b5146101165780634920d55f14610120575b600080fd5b6100b26102c6565b6040518082815260200191505060405180910390f35b610114600480360360408110156100de57600080fd5b81019080803573ffffffffffffffffffffffffffffffffffffffff169060200190929190803590602001909291905050506102d3565b005b61011e6104e9565b005b61016c6004803603604081101561013657600080fd5b81019080803573ffffffffffffffffffffffffffffffffffffffff1690602001909291908035906020019092919050505061055d565b005b61019a6004803603602081101561018457600080fd5b81019080803590602001909291905050506106ec565b604051808273ffffffffffffffffffffffffffffffffffffffff1673ffffffffffffffffffffffffffffffffffffffff16815260200191505060405180910390f35b61021e600480360360208110156101f257600080fd5b81019080803573ffffffffffffffffffffffffffffffffffffffff169060200190929190505050610829565b005b61026c6004803603604081101561023657600080fd5b81019080803573ffffffffffffffffffffffffffffffffffffffff1690602001909291908035906020019092919050505061090a565b005b6102b06004803603602081101561028457600080fd5b81019080803573ffffffffffffffffffffffffffffffffffffffff169060200190929190505050610ad1565b6040518082815260200191505060405180910390f35b6000600380549050905090565b6000809054906101000a900473ffffffffffffffffffffffffffffffffffffffff1673ffffffffffffffffffffffffffffffffffffffff163373ffffffffffffffffffffffffffffffffffffffff16141515610397576040517f08c379a00000000000000000000000000000000000000000000000000000000081526004018080602001828103825260168152602001807f4f6e6c7920646f63746f722063616e20636f6d6d69740000000000000000000081525060200191505060405180910390fd5b600160008373ffffffffffffffffffffffffffffffffffffffff1673ffffffffffffffffffffffffffffffffffffffff16815260200190815260200160002060009054906101000a900460ff161515610458576040517f08c379a00000000000000000000000000000000000000000000000000000000081526004018080602001828103825260188152602001807f4e6f7420796f75722070617469656e7420617373686f6c65000000000000000081525060200191505060405180910390fd5b60008290508073ffffffffffffffffffffffffffffffffffffffff16632bb60ac1836040518263ffffffff167c010000000000000000000000000000000000000000000000000000000002815260040180828152602001915050600060405180830381600087803b1580156104cc57600080fd5b505af11580156104e0573d6000803e3d6000fd5b50505050505050565b6000809054906101000a900473ffffffffffffffffffffffffffffffffffffffff1673ffffffffffffffffffffffffffffffffffffffff163373ffffffffffffffffffffffffffffffffffffffff1614151561054457600080fd5b3373ffffffffffffffffffffffffffffffffffffffff16ff5b8173ffffffffffffffffffffffffffffffffffffffff163373ffffffffffffffffffffffffffffffffffffffff161415156105e3576040517f08c379a0000000000000000000000000000000000000000000000000000000008152600401808060200182810382526029815260200180610b406029913960400191505060405180910390fd5b600160008373ffffffffffffffffffffffffffffffffffffffff1673ffffffffffffffffffffffffffffffffffffffff16815260200190815260200160002060009054906101000a900460ff1615156106a4576040517f08c379a00000000000000000000000000000000000000000000000000000000081526004018080602001828103825260188152602001807f70617469656e7420646f6573206e6f74206578697374732e000000000000000081525060200191505060405180910390fd5b80600260008473ffffffffffffffffffffffffffffffffffffffff1673ffffffffffffffffffffffffffffffffffffffff168152602001908152602001600020819055505050565b60006001600060038481548110151561070157fe5b9060005260206000200160009054906101000a900473ffffffffffffffffffffffffffffffffffffffff1673ffffffffffffffffffffffffffffffffffffffff1673ffffffffffffffffffffffffffffffffffffffff16815260200190815260200160002060009054906101000a900460ff1615156107e8576040517f08c379a000000000000000000000000000000000000000000000000000000000815260040180806020018281038252601d8152602001807f50617469656e74206e6f206c6f6e6765722061636365737369626c652e00000081525060200191505060405180910390fd5b6003828154811015156107f757fe5b9060005260206000200160009054906101000a900473ffffffffffffffffffffffffffffffffffffffff169050919050565b8073ffffffffffffffffffffffffffffffffffffffff163373ffffffffffffffffffffffffffffffffffffffff161415156108af576040517f08c379a0000000000000000000000000000000000000000000000000000000008152600401808060200182810382526025815260200180610b1b6025913960400191505060405180910390fd5b6000600160008373ffffffffffffffffffffffffffffffffffffffff1673ffffffffffffffffffffffffffffffffffffffff16815260200190815260200160002060006101000a81548160ff02191690831515021790555050565b600160008373ffffffffffffffffffffffffffffffffffffffff1673ffffffffffffffffffffffffffffffffffffffff16815260200190815260200160002060009054906101000a900460ff161515156109cc576040517f08c379a00000000000000000000000000000000000000000000000000000000081526004018080602001828103825260168152602001807f70617469656e7420616c72656164792061646465642e0000000000000000000081525060200191505060405180910390fd5b60038290806001815401808255809150509060018203906000526020600020016000909192909190916101000a81548173ffffffffffffffffffffffffffffffffffffffff021916908373ffffffffffffffffffffffffffffffffffffffff1602179055505060018060008473ffffffffffffffffffffffffffffffffffffffff1673ffffffffffffffffffffffffffffffffffffffff16815260200190815260200160002060006101000a81548160ff02191690831515021790555080600260008473ffffffffffffffffffffffffffffffffffffffff1673ffffffffffffffffffffffffffffffffffffffff168152602001908152602001600020819055505050565b6000600260008373ffffffffffffffffffffffffffffffffffffffff1673ffffffffffffffffffffffffffffffffffffffff16815260200190815260200160002054905091905056fe4f6e6c792070617469656e742063616e2072656d6f76652068696d2f6865722073656c662e4f6e6c792070617469656e742063616e20757064617465206b65792076616c756520696e20646f632ea165627a7a723058203934f002b49489564468fbfd9f52427235ed4041a7198a3ff749cea40f669ed30029",
  "source": "pragma solidity 0.5.3;\nimport \"./Bhagwaan.sol\";\nimport \"./Patientgen.sol\";\n\n\n// contract AbstractPatient{\n//     function pushHash(bytes32) public;\n// }\n\ncontract DoctorGen{\n  address[] contracts;\n  address bhagw;\n  address govt;\n  address[] contractUsers;\n\n  constructor(address bhagwaanadd) public payable{\n    govt=msg.sender;\n    bhagw = bhagwaanadd;\n  }\n\n  function getDoctorCount() public view returns(uint doccount){\n    return contracts.length;\n  }\n\n  function newDoctor(address docAcc, bytes32 pubKey) public returns (address newContract){\n    require(msg.sender == govt,\"not government\");\n    bool userFound = false;\n    for (uint i=0; i<contractUsers.length; i++) {\n          if (docAcc == contractUsers[i]){\n              userFound = true;\n          }\n    }\n    if (!userFound) {\n      Doctor d = new Doctor(docAcc);\n      Bhagwaan bh = Bhagwaan(bhagw);\n      bh.addDoc(address(d), pubKey);\n      contracts.push(address(d));\n      contractUsers.push(docAcc);\n      return address(d);\n    }\n    else return address(0);\n  }\n\n  function getLastAddress() public view returns(address latestContract){\n    return contracts[contracts.length-1];\n  }\n}\n\ncontract Doctor {\n    //Address of the school administrator\n    address user;\n    mapping(address => bool) isPatient;\n    mapping(address => bytes32) patientKeys;\n    address[] myPatients;\n\n    constructor(address docAcc) public payable{\n        user=docAcc;\n    }\n\n    function kill() public{\n        require(msg.sender == user);\n            selfdestruct(msg.sender);\n    }\n\n    function commitprescription(address pat, bytes32 hashvalue) public{\n        // Patient.pushhash()///call push hash function uswing given address\n        require(msg.sender==user, \"Only doctor can commit\");\n        require(isPatient[pat], \"Not your patient asshole\");\n        Patient my_a = Patient(pat);\n        my_a.pushHash(hashvalue);\n    }\n\n    function addPatient(address patient, bytes32 encryptedKey) public{\n        require(!isPatient[patient], \"patient already added.\");\n        myPatients.push(patient);\n        isPatient[patient] = true;\n        patientKeys[patient] = encryptedKey;\n    }\n\n    function removePatient(address patient) public {\n        require(msg.sender == patient, \"Only patient can remove him/her self.\");\n        isPatient[patient] = false;\n    }\n\n    function updatePatientKey(address patient, bytes32 keyValue) public{\n        require(msg.sender == patient, \"Only patient can update key value in doc.\");\n        require(isPatient[patient], \"patient does not exists.\");\n        patientKeys[patient] = keyValue;\n    }\n\n    function getAllowedPatientsNum() public view returns(uint){\n        return myPatients.length;\n    }\n\n    function getAllowedPatientByIndex(uint i) public view returns (address){\n        require(isPatient[myPatients[i]], \"Patient no longer accessible.\");\n        return myPatients[i];\n    }\n\n    function getPatientKey(address patAddress) public returns(bytes32){\n        return patientKeys[patAddress];\n    }\n}\n",
  "sourcePath": "/home/shikhi/EthCare/Ethereum-Healthcare/contracts/Doctor.sol",
  "compiler": {
    "name": "solc",
    "version": "0.5.3+commit.10d17f24.Emscripten.clang"
  },
  "schemaVersion": "3.0.6",
  "updatedAt": "2019-04-15T20:14:33.648Z",
  "devdoc": {
    "methods": {}
  },
  "userdoc": {
    "methods": {}
  }
}