{
  "contractName": "DoctorGen",
  "abi": [
    {
      "inputs": [
        {
          "name": "bhagwaanadd",
          "type": "address"
        }
      ],
      "payable": true,
      "stateMutability": "payable",
      "type": "constructor",
      "signature": "constructor"
    },
    {
      "constant": true,
      "inputs": [],
      "name": "getDoctorCount",
      "outputs": [
        {
          "name": "doccount",
          "type": "uint256"
        }
      ],
      "payable": false,
      "stateMutability": "view",
      "type": "function",
      "signature": "0x79111c1c"
    },
    {
      "constant": false,
      "inputs": [
        {
          "name": "docAcc",
          "type": "address"
        },
        {
          "name": "pubKey",
          "type": "bytes32"
        }
      ],
      "name": "newDoctor",
      "outputs": [
        {
          "name": "newContract",
          "type": "address"
        }
      ],
      "payable": false,
      "stateMutability": "nonpayable",
      "type": "function",
      "signature": "0xc13cbc08"
    },
    {
      "constant": true,
      "inputs": [],
      "name": "getLastAddress",
      "outputs": [
        {
          "name": "latestContract",
          "type": "address"
        }
      ],
      "payable": false,
      "stateMutability": "view",
      "type": "function",
      "signature": "0x71a2ee52"
    }
  ],
  "bytecode": "0x608060405260405160208061113d8339810180604052602081101561002357600080fd5b810190808051906020019092919050505033600260006101000a81548173ffffffffffffffffffffffffffffffffffffffff021916908373ffffffffffffffffffffffffffffffffffffffff16021790555080600160006101000a81548173ffffffffffffffffffffffffffffffffffffffff021916908373ffffffffffffffffffffffffffffffffffffffff16021790555050611077806100c66000396000f3fe608060405234801561001057600080fd5b506004361061005e576000357c01000000000000000000000000000000000000000000000000000000009004806371a2ee521461006357806379111c1c146100ad578063c13cbc08146100cb575b600080fd5b61006b610159565b604051808273ffffffffffffffffffffffffffffffffffffffff1673ffffffffffffffffffffffffffffffffffffffff16815260200191505060405180910390f35b6100b56101a1565b6040518082815260200191505060405180910390f35b610117600480360360408110156100e157600080fd5b81019080803573ffffffffffffffffffffffffffffffffffffffff169060200190929190803590602001909291905050506101ad565b604051808273ffffffffffffffffffffffffffffffffffffffff1673ffffffffffffffffffffffffffffffffffffffff16815260200191505060405180910390f35b60008060016000805490500381548110151561017157fe5b9060005260206000200160009054906101000a900473ffffffffffffffffffffffffffffffffffffffff16905090565b60008080549050905090565b6000600260009054906101000a900473ffffffffffffffffffffffffffffffffffffffff1673ffffffffffffffffffffffffffffffffffffffff163373ffffffffffffffffffffffffffffffffffffffff1614151561020b57600080fd5b600080905060008090505b6003805490508110156102a25760038181548110151561023257fe5b9060005260206000200160009054906101000a900473ffffffffffffffffffffffffffffffffffffffff1673ffffffffffffffffffffffffffffffffffffffff168573ffffffffffffffffffffffffffffffffffffffff16141561029557600191505b8080600101915050610216565b5080156104c6576000846040516102b8906104d2565b808273ffffffffffffffffffffffffffffffffffffffff1673ffffffffffffffffffffffffffffffffffffffff168152602001915050604051809103906000f08015801561030a573d6000803e3d6000fd5b5090506000600160009054906101000a900473ffffffffffffffffffffffffffffffffffffffff1690508073ffffffffffffffffffffffffffffffffffffffff16635c21687883876040518363ffffffff167c0100000000000000000000000000000000000000000000000000000000028152600401808373ffffffffffffffffffffffffffffffffffffffff1673ffffffffffffffffffffffffffffffffffffffff16815260200182815260200192505050600060405180830381600087803b1580156103d757600080fd5b505af11580156103eb573d6000803e3d6000fd5b5050505060008290806001815401808255809150509060018203906000526020600020016000909192909190916101000a81548173ffffffffffffffffffffffffffffffffffffffff021916908373ffffffffffffffffffffffffffffffffffffffff1602179055505060038690806001815401808255809150509060018203906000526020600020016000909192909190916101000a81548173ffffffffffffffffffffffffffffffffffffffff021916908373ffffffffffffffffffffffffffffffffffffffff160217905550508193505050506104cc565b60009150505b92915050565b610b6c806104e08339019056fe6080604052604051602080610b6c8339810180604052602081101561002357600080fd5b8101908080519060200190929190505050806000806101000a81548173ffffffffffffffffffffffffffffffffffffffff021916908373ffffffffffffffffffffffffffffffffffffffff16021790555050610ae8806100846000396000f3fe608060405234801561001057600080fd5b506004361061009a576000357c0100000000000000000000000000000000000000000000000000000000900480634920d55f116100785780634920d55f146101155780636795814a146101635780637d0d6257146101d15780637fd35db7146102155761009a565b8063234287801461009f5780633ebe0092146100bd57806341c0e1b51461010b575b600080fd5b6100a7610263565b6040518082815260200191505060405180910390f35b610109600480360360408110156100d357600080fd5b81019080803573ffffffffffffffffffffffffffffffffffffffff16906020019092919080359060200190929190505050610270565b005b610113610486565b005b6101616004803603604081101561012b57600080fd5b81019080803573ffffffffffffffffffffffffffffffffffffffff169060200190929190803590602001909291905050506104fa565b005b61018f6004803603602081101561017957600080fd5b8101908080359060200190929190505050610689565b604051808273ffffffffffffffffffffffffffffffffffffffff1673ffffffffffffffffffffffffffffffffffffffff16815260200191505060405180910390f35b610213600480360360208110156101e757600080fd5b81019080803573ffffffffffffffffffffffffffffffffffffffff1690602001909291905050506107c6565b005b6102616004803603604081101561022b57600080fd5b81019080803573ffffffffffffffffffffffffffffffffffffffff169060200190929190803590602001909291905050506108a7565b005b6000600380549050905090565b6000809054906101000a900473ffffffffffffffffffffffffffffffffffffffff1673ffffffffffffffffffffffffffffffffffffffff163373ffffffffffffffffffffffffffffffffffffffff16141515610334576040517f08c379a00000000000000000000000000000000000000000000000000000000081526004018080602001828103825260168152602001807f4f6e6c7920646f63746f722063616e20636f6d6d69740000000000000000000081525060200191505060405180910390fd5b600160008373ffffffffffffffffffffffffffffffffffffffff1673ffffffffffffffffffffffffffffffffffffffff16815260200190815260200160002060009054906101000a900460ff1615156103f5576040517f08c379a00000000000000000000000000000000000000000000000000000000081526004018080602001828103825260188152602001807f4e6f7420796f75722070617469656e7420617373686f6c65000000000000000081525060200191505060405180910390fd5b60008290508073ffffffffffffffffffffffffffffffffffffffff16632bb60ac1836040518263ffffffff167c010000000000000000000000000000000000000000000000000000000002815260040180828152602001915050600060405180830381600087803b15801561046957600080fd5b505af115801561047d573d6000803e3d6000fd5b50505050505050565b6000809054906101000a900473ffffffffffffffffffffffffffffffffffffffff1673ffffffffffffffffffffffffffffffffffffffff163373ffffffffffffffffffffffffffffffffffffffff161415156104e157600080fd5b3373ffffffffffffffffffffffffffffffffffffffff16ff5b8173ffffffffffffffffffffffffffffffffffffffff163373ffffffffffffffffffffffffffffffffffffffff16141515610580576040517f08c379a0000000000000000000000000000000000000000000000000000000008152600401808060200182810382526029815260200180610a946029913960400191505060405180910390fd5b600160008373ffffffffffffffffffffffffffffffffffffffff1673ffffffffffffffffffffffffffffffffffffffff16815260200190815260200160002060009054906101000a900460ff161515610641576040517f08c379a00000000000000000000000000000000000000000000000000000000081526004018080602001828103825260188152602001807f70617469656e7420646f6573206e6f74206578697374732e000000000000000081525060200191505060405180910390fd5b80600260008473ffffffffffffffffffffffffffffffffffffffff1673ffffffffffffffffffffffffffffffffffffffff168152602001908152602001600020819055505050565b60006001600060038481548110151561069e57fe5b9060005260206000200160009054906101000a900473ffffffffffffffffffffffffffffffffffffffff1673ffffffffffffffffffffffffffffffffffffffff1673ffffffffffffffffffffffffffffffffffffffff16815260200190815260200160002060009054906101000a900460ff161515610785576040517f08c379a000000000000000000000000000000000000000000000000000000000815260040180806020018281038252601d8152602001807f50617469656e74206e6f206c6f6e6765722061636365737369626c652e00000081525060200191505060405180910390fd5b60038281548110151561079457fe5b9060005260206000200160009054906101000a900473ffffffffffffffffffffffffffffffffffffffff169050919050565b8073ffffffffffffffffffffffffffffffffffffffff163373ffffffffffffffffffffffffffffffffffffffff1614151561084c576040517f08c379a0000000000000000000000000000000000000000000000000000000008152600401808060200182810382526025815260200180610a6f6025913960400191505060405180910390fd5b6000600160008373ffffffffffffffffffffffffffffffffffffffff1673ffffffffffffffffffffffffffffffffffffffff16815260200190815260200160002060006101000a81548160ff02191690831515021790555050565b600160008373ffffffffffffffffffffffffffffffffffffffff1673ffffffffffffffffffffffffffffffffffffffff16815260200190815260200160002060009054906101000a900460ff16151515610969576040517f08c379a00000000000000000000000000000000000000000000000000000000081526004018080602001828103825260168152602001807f70617469656e7420616c72656164792061646465642e0000000000000000000081525060200191505060405180910390fd5b60038290806001815401808255809150509060018203906000526020600020016000909192909190916101000a81548173ffffffffffffffffffffffffffffffffffffffff021916908373ffffffffffffffffffffffffffffffffffffffff1602179055505060018060008473ffffffffffffffffffffffffffffffffffffffff1673ffffffffffffffffffffffffffffffffffffffff16815260200190815260200160002060006101000a81548160ff02191690831515021790555080600260008473ffffffffffffffffffffffffffffffffffffffff1673ffffffffffffffffffffffffffffffffffffffff16815260200190815260200160002081905550505056fe4f6e6c792070617469656e742063616e2072656d6f76652068696d2f6865722073656c662e4f6e6c792070617469656e742063616e20757064617465206b65792076616c756520696e20646f632ea165627a7a723058200d93ff0bfd9c67471209a5f98867647f78050987107bcab4a29985fe24e067520029a165627a7a7230582073d27add89acc47ef956baf955d0b6e9059153a414a8e675bac5e16a894ee2d80029",
  "source": "pragma solidity 0.5.3;\nimport \"./Bhagwaan.sol\";\nimport \"./Patientgen.sol\";\n\n\n// contract AbstractPatient{\n//     function pushHash(bytes32) public;\n// }\n\ncontract DoctorGen{\n  address[] contracts;\n  address bhagw;\n  address govt;\n  address[] contractUsers;\n\n  constructor(address bhagwaanadd) public payable{\n    govt=msg.sender;\n    bhagw = bhagwaanadd;\n  }\n\n  function getDoctorCount() public view returns(uint doccount){\n    return contracts.length;\n  }\n\n  function newDoctor(address docAcc, bytes32 pubKey) public returns (address newContract){\n    require(msg.sender == govt);\n    bool userFound = false;\n    for (uint i=0; i<contractUsers.length; i++) {\n          if (docAcc == contractUsers[i]){\n              userFound = true;\n          }\n    }\n    if (userFound) {\n      Doctor d = new Doctor(docAcc);\n      Bhagwaan bh = Bhagwaan(bhagw);\n      bh.addDoc(address(d), pubKey);\n      contracts.push(address(d));\n      contractUsers.push(docAcc);\n      return address(d);\n    }\n    else return address(0);\n  }\n\n  function getLastAddress() public view returns(address latestContract){\n    return contracts[contracts.length-1];\n  }\n}\n\ncontract Doctor {\n    //Address of the school administrator\n    address user;\n    mapping(address => bool) isPatient;\n    mapping(address => bytes32) patientKeys;\n    address[] myPatients;\n\n    constructor(address docAcc) public payable{\n        user=docAcc;\n    }\n\n    function kill() public{\n        require(msg.sender == user);\n            selfdestruct(msg.sender);\n    }\n\n    function commitprescription(address pat, bytes32 hashvalue) public{\n        // Patient.pushhash()///call push hash function uswing given address\n        require(msg.sender==user, \"Only doctor can commit\");\n        require(isPatient[pat], \"Not your patient asshole\");\n        Patient my_a = Patient(pat);\n        my_a.pushHash(hashvalue);\n    }\n\n    function addPatient(address patient, bytes32 encryptedKey) public{\n        require(!isPatient[patient], \"patient already added.\");\n        myPatients.push(patient);\n        isPatient[patient] = true;\n        patientKeys[patient] = encryptedKey;\n    }\n\n    function removePatient(address patient) public {\n        require(msg.sender == patient, \"Only patient can remove him/her self.\");\n        isPatient[patient] = false;\n    }\n\n    function updatePatientKey(address patient, bytes32 keyValue) public{\n        require(msg.sender == patient, \"Only patient can update key value in doc.\");\n        require(isPatient[patient], \"patient does not exists.\");\n        patientKeys[patient] = keyValue;\n    }\n\n    function getAllowedPatientsNum() public view returns(uint){\n        return myPatients.length;\n    }\n\n    function getAllowedPatientByIndex(uint i) public view returns (address){\n        require(isPatient[myPatients[i]], \"Patient no longer accessible.\");\n        return myPatients[i];\n    }\n}\n",
  "sourcePath": "/home/shikhi/EthCare/Ethereum-Healthcare/contracts/Doctor.sol",
  "compiler": {
    "name": "solc",
    "version": "0.5.3+commit.10d17f24.Emscripten.clang"
  },
  "schemaVersion": "3.0.6",
  "updatedAt": "2019-04-15T14:14:50.226Z",
  "devdoc": {
    "methods": {}
  },
  "userdoc": {
    "methods": {}
  }
}