{
  "contractName": "PatientGen",
  "abi": [
    {
      "inputs": [
        {
          "name": "bhagwaanAddrs",
          "type": "address"
        }
      ],
      "payable": true,
      "stateMutability": "payable",
      "type": "constructor",
      "signature": "constructor"
    },
    {
      "constant": false,
      "inputs": [],
      "name": "getPatientCount",
      "outputs": [
        {
          "name": "patientcount",
          "type": "uint256"
        }
      ],
      "payable": false,
      "stateMutability": "nonpayable",
      "type": "function",
      "signature": "0xc190665b"
    },
    {
      "constant": false,
      "inputs": [],
      "name": "newPatient",
      "outputs": [
        {
          "name": "newContract",
          "type": "address"
        }
      ],
      "payable": false,
      "stateMutability": "nonpayable",
      "type": "function",
      "signature": "0xe74911da"
    },
    {
      "constant": false,
      "inputs": [],
      "name": "getLastAddress",
      "outputs": [
        {
          "name": "latestContract",
          "type": "address"
        }
      ],
      "payable": false,
      "stateMutability": "nonpayable",
      "type": "function",
      "signature": "0x71a2ee52"
    }
  ],
  "bytecode": "0x6080604052604051602080610a9d8339810180604052602081101561002357600080fd5b810190808051906020019092919050505033600260006101000a81548173ffffffffffffffffffffffffffffffffffffffff021916908373ffffffffffffffffffffffffffffffffffffffff16021790555080600160006101000a81548173ffffffffffffffffffffffffffffffffffffffff021916908373ffffffffffffffffffffffffffffffffffffffff160217905550506109d7806100c66000396000f3fe608060405234801561001057600080fd5b506004361061005e576000357c01000000000000000000000000000000000000000000000000000000009004806371a2ee5214610063578063c190665b146100ad578063e74911da146100cb575b600080fd5b61006b610115565b604051808273ffffffffffffffffffffffffffffffffffffffff1673ffffffffffffffffffffffffffffffffffffffff16815260200191505060405180910390f35b6100b561015d565b6040518082815260200191505060405180910390f35b6100d3610169565b604051808273ffffffffffffffffffffffffffffffffffffffff1673ffffffffffffffffffffffffffffffffffffffff16815260200191505060405180910390f35b60008060016000805490500381548110151561012d57fe5b9060005260206000200160009054906101000a900473ffffffffffffffffffffffffffffffffffffffff16905090565b60008080549050905090565b600080600160009054906101000a900473ffffffffffffffffffffffffffffffffffffffff1660405161019b9061025d565b808273ffffffffffffffffffffffffffffffffffffffff1673ffffffffffffffffffffffffffffffffffffffff168152602001915050604051809103906000f0801580156101ed573d6000803e3d6000fd5b50905060008190806001815401808255809150509060018203906000526020600020016000909192909190916101000a81548173ffffffffffffffffffffffffffffffffffffffff021916908373ffffffffffffffffffffffffffffffffffffffff160217905550508091505090565b6107418061026b8339019056fe60806040526040516020806107418339810180604052602081101561002357600080fd5b8101908080519060200190929190505050326000806101000a81548173ffffffffffffffffffffffffffffffffffffffff021916908373ffffffffffffffffffffffffffffffffffffffff16021790555080600660006101000a81548173ffffffffffffffffffffffffffffffffffffffff021916908373ffffffffffffffffffffffffffffffffffffffff1602179055505061067c806100c56000396000f3fe608060405234801561001057600080fd5b506004361061007f576000357c0100000000000000000000000000000000000000000000000000000000900480631c45272e146100845780632bb60ac1146100a257806341c0e1b5146100d057806385c53cf1146100da57806385e6853114610128578063bbbd2d701461016c575b600080fd5b61008c6101c8565b6040518082815260200191505060405180910390f35b6100ce600480360360208110156100b857600080fd5b81019080803590602001909291905050506101d5565b005b6100d861021e565b005b610126600480360360408110156100f057600080fd5b81019080803573ffffffffffffffffffffffffffffffffffffffff16906020019092919080359060200190929190505050610292565b005b61016a6004803603602081101561013e57600080fd5b81019080803573ffffffffffffffffffffffffffffffffffffffff1690602001909291905050506104fc565b005b6101ae6004803603602081101561018257600080fd5b81019080803573ffffffffffffffffffffffffffffffffffffffff1690602001909291905050506105fa565b604051808215151515815260200191505060405180910390f35b6000600280549050905090565b60003390506101e3816105fa565b15156101ee57600080fd5b60028290806001815401808255809150509060018203906000526020600020016000909192909190915055505050565b6000809054906101000a900473ffffffffffffffffffffffffffffffffffffffff1673ffffffffffffffffffffffffffffffffffffffff163373ffffffffffffffffffffffffffffffffffffffff1614151561027957600080fd5b3373ffffffffffffffffffffffffffffffffffffffff16ff5b6000809054906101000a900473ffffffffffffffffffffffffffffffffffffffff1673ffffffffffffffffffffffffffffffffffffffff163373ffffffffffffffffffffffffffffffffffffffff161415156102ed57600080fd5b6000600660009054906101000a900473ffffffffffffffffffffffffffffffffffffffff1690508073ffffffffffffffffffffffffffffffffffffffff1663151dd18e846040518263ffffffff167c0100000000000000000000000000000000000000000000000000000000028152600401808273ffffffffffffffffffffffffffffffffffffffff1673ffffffffffffffffffffffffffffffffffffffff168152602001915050602060405180830381600087803b1580156103af57600080fd5b505af11580156103c3573d6000803e3d6000fd5b505050506040513d60208110156103d957600080fd5b810190808051906020019092919050505015156103f557600080fd5b6001600360008573ffffffffffffffffffffffffffffffffffffffff1673ffffffffffffffffffffffffffffffffffffffff16815260200190815260200160002060006101000a81548160ff02191690831515021790555081600560008573ffffffffffffffffffffffffffffffffffffffff1673ffffffffffffffffffffffffffffffffffffffff1681526020019081526020016000208190555060048390806001815401808255809150509060018203906000526020600020016000909192909190916101000a81548173ffffffffffffffffffffffffffffffffffffffff021916908373ffffffffffffffffffffffffffffffffffffffff16021790555050505050565b6000809054906101000a900473ffffffffffffffffffffffffffffffffffffffff1673ffffffffffffffffffffffffffffffffffffffff163373ffffffffffffffffffffffffffffffffffffffff1614151561055757600080fd5b6000600360008373ffffffffffffffffffffffffffffffffffffffff1673ffffffffffffffffffffffffffffffffffffffff16815260200190815260200160002060006101000a81548160ff0219169083151502179055506000600102600560008373ffffffffffffffffffffffffffffffffffffffff1673ffffffffffffffffffffffffffffffffffffffff1681526020019081526020016000208190555050565b6000600360008373ffffffffffffffffffffffffffffffffffffffff1673ffffffffffffffffffffffffffffffffffffffff16815260200190815260200160002060009054906101000a900460ff16905091905056fea165627a7a723058209c021febf3ac6bede10f811caedf5349cc7719636d5099908c96a955f0dece3d0029a165627a7a723058205b2963519f18749941d2bd123bce79cd1c654413b58b44d2147339dd4e94d2230029",
  "source": "pragma solidity 0.5.3;\nimport \"./Bhagwaan.sol\";\n\n\n// contract AbstractBhagwaan{\n//     function checkDoc(address) public returns(bool);\n// }\n\ncontract PatientGen {\n  address[] contracts;\n  address bhagw;\n  address user;\n\n  constructor(address bhagwaanAddrs) public payable{\n    user=msg.sender;\n    bhagw=bhagwaanAddrs;\n  }\n\n  function getPatientCount() public returns(uint patientcount){\n    return contracts.length;\n  }\n\n  function newPatient() public returns (address newContract){\n    Patient p = new Patient(bhagw);\n    contracts.push(address(p));\n    return address(p);\n  }\n\n  function getLastAddress() public returns(address latestContract){\n    return contracts[contracts.length-1];\n  }\n}\n\ncontract Patient {\n    //Address of the school administrator\n    address user;\n    mapping(bytes32 => bool) private isPrescription;\n    bytes32[] prescription;\n    mapping(address => bool) private isAllowed;\n    address[] allowed;\n    mapping(address => bytes32) encryptedKeys;//corresponding encrypted symmetric key for doctors\n    address bhag;\n\n\n    constructor(address bhagwaanAddrs) public payable{\n        user=tx.origin;\n        bhag=bhagwaanAddrs;\n    }\n\n    function kill() public{\n        require(msg.sender == user);\n            selfdestruct(msg.sender);\n    }\n\n\n    function giveAccess(address doc, bytes32 encryptedKey) public {\n        require(msg.sender==user);\n        Bhagwaan a = Bhagwaan(bhag);\n        require(a.checkDoc(doc));\n        isAllowed[doc] = true;\n        encryptedKeys[doc] = encryptedKey;\n        allowed.push(doc);\n    }\n\n    function revokeAccess(address doc) public {\n        require(msg.sender==user);\n        isAllowed[doc] = false;\n        encryptedKeys[doc] = 0;\n    }\n\n    // function getAllowedDocs() public returns (address[] allowedDocs){\n    //   return allowed;\n    // }\n\n    // function updateKey(bytes32 newKey) private{\n    //\n    // }\n\n    function checkAllowed(address doc) public returns(bool){\n        return isAllowed[doc] ;\n    }\n\n    function pushHash(bytes32 hashvalue)public{\n        address doc = msg.sender;\n        require(checkAllowed(doc));\n        prescription.push(hashvalue);\n    }\n\n    function getNumPrescriptions() public returns(uint){\n        return prescription.length;\n    }\n\n    // function getRecords(address patient) public return(string){\n    //\n    // }\n\n}\n",
  "sourcePath": "/home/shikhi/EthCare/Ethereum-Healthcare/contracts/Patientgen.sol",
  "compiler": {
    "name": "solc",
    "version": "0.5.3+commit.10d17f24.Emscripten.clang"
  },
  "schemaVersion": "3.0.6",
  "updatedAt": "2019-04-15T07:41:23.494Z",
  "devdoc": {
    "methods": {}
  },
  "userdoc": {
    "methods": {}
  }
}