{
  "contractName": "Patient",
  "abi": [
    {
      "inputs": [
        {
          "name": "bhagwaanAddrs",
          "type": "address"
        }
      ],
      "payable": true,
      "stateMutability": "payable",
      "type": "constructor"
    },
    {
      "constant": false,
      "inputs": [],
      "name": "kill",
      "outputs": [],
      "payable": false,
      "stateMutability": "nonpayable",
      "type": "function"
    },
    {
      "constant": false,
      "inputs": [
        {
          "name": "doc",
          "type": "address"
        },
        {
          "name": "encryptedKey",
          "type": "bytes32"
        }
      ],
      "name": "giveAccess",
      "outputs": [],
      "payable": false,
      "stateMutability": "nonpayable",
      "type": "function"
    },
    {
      "constant": false,
      "inputs": [
        {
          "name": "doc",
          "type": "address"
        }
      ],
      "name": "revokeAccess",
      "outputs": [],
      "payable": false,
      "stateMutability": "nonpayable",
      "type": "function"
    },
    {
      "constant": false,
      "inputs": [
        {
          "name": "doc",
          "type": "address"
        },
        {
          "name": "encryptedKey",
          "type": "bytes32"
        }
      ],
      "name": "updateKey",
      "outputs": [],
      "payable": false,
      "stateMutability": "nonpayable",
      "type": "function"
    },
    {
      "constant": true,
      "inputs": [],
      "name": "getAllowedDocsNum",
      "outputs": [
        {
          "name": "",
          "type": "uint256"
        }
      ],
      "payable": false,
      "stateMutability": "view",
      "type": "function"
    },
    {
      "constant": true,
      "inputs": [
        {
          "name": "i",
          "type": "uint256"
        }
      ],
      "name": "getAllowedDocByIndex",
      "outputs": [
        {
          "name": "",
          "type": "address"
        }
      ],
      "payable": false,
      "stateMutability": "view",
      "type": "function"
    },
    {
      "constant": true,
      "inputs": [
        {
          "name": "doc",
          "type": "address"
        }
      ],
      "name": "checkAllowed",
      "outputs": [
        {
          "name": "",
          "type": "bool"
        }
      ],
      "payable": false,
      "stateMutability": "view",
      "type": "function"
    },
    {
      "constant": false,
      "inputs": [
        {
          "name": "hashvalue",
          "type": "bytes32"
        }
      ],
      "name": "pushHash",
      "outputs": [],
      "payable": false,
      "stateMutability": "nonpayable",
      "type": "function"
    },
    {
      "constant": true,
      "inputs": [],
      "name": "getNumPrescriptions",
      "outputs": [
        {
          "name": "",
          "type": "uint256"
        }
      ],
      "payable": false,
      "stateMutability": "view",
      "type": "function"
    },
    {
      "constant": true,
      "inputs": [
        {
          "name": "doc",
          "type": "address"
        }
      ],
      "name": "getPubKey",
      "outputs": [
        {
          "name": "",
          "type": "bytes32"
        }
      ],
      "payable": false,
      "stateMutability": "view",
      "type": "function"
    }
  ],
  "bytecode": "0x6080604052604051602080610c528339810180604052602081101561002357600080fd5b8101908080519060200190929190505050326000806101000a81548173ffffffffffffffffffffffffffffffffffffffff021916908373ffffffffffffffffffffffffffffffffffffffff16021790555080600560006101000a81548173ffffffffffffffffffffffffffffffffffffffff021916908373ffffffffffffffffffffffffffffffffffffffff160217905550600560009054906101000a900473ffffffffffffffffffffffffffffffffffffffff16600660006101000a81548173ffffffffffffffffffffffffffffffffffffffff021916908373ffffffffffffffffffffffffffffffffffffffff16021790555050610b2a806101286000396000f3fe608060405234801561001057600080fd5b50600436106100bb576000357c01000000000000000000000000000000000000000000000000000000009004806385c53cf11161008357806385c53cf11461018257806385e68531146101d0578063bbbd2d7014610214578063c16519cf14610270578063fce9512a146102de576100bb565b80631c45272e146100c05780632bb60ac1146100de5780632fbbc7f11461010c57806341c0e1b51461012a57806359a6308014610134575b600080fd5b6100c8610336565b6040518082815260200191505060405180910390f35b61010a600480360360208110156100f457600080fd5b8101908080359060200190929190505050610343565b005b61011461038c565b6040518082815260200191505060405180910390f35b610132610399565b005b6101806004803603604081101561014a57600080fd5b81019080803573ffffffffffffffffffffffffffffffffffffffff1690602001909291908035906020019092919050505061040d565b005b6101ce6004803603604081101561019857600080fd5b81019080803573ffffffffffffffffffffffffffffffffffffffff169060200190929190803590602001909291905050506105aa565b005b610212600480360360208110156101e657600080fd5b81019080803573ffffffffffffffffffffffffffffffffffffffff16906020019092919050505061072d565b005b6102566004803603602081101561022a57600080fd5b81019080803573ffffffffffffffffffffffffffffffffffffffff1690602001909291905050506108b0565b604051808215151515815260200191505060405180910390f35b61029c6004803603602081101561028657600080fd5b8101908080359060200190929190505050610906565b604051808273ffffffffffffffffffffffffffffffffffffffff1673ffffffffffffffffffffffffffffffffffffffff16815260200191505060405180910390f35b610320600480360360208110156102f457600080fd5b81019080803573ffffffffffffffffffffffffffffffffffffffff1690602001909291905050506109ff565b6040518082815260200191505060405180910390f35b6000600280549050905090565b6000339050610351816108b0565b151561035c57600080fd5b60028290806001815401808255809150509060018203906000526020600020016000909192909190915055505050565b6000600480549050905090565b6000809054906101000a900473ffffffffffffffffffffffffffffffffffffffff1673ffffffffffffffffffffffffffffffffffffffff163373ffffffffffffffffffffffffffffffffffffffff161415156103f457600080fd5b3373ffffffffffffffffffffffffffffffffffffffff16ff5b6000809054906101000a900473ffffffffffffffffffffffffffffffffffffffff1673ffffffffffffffffffffffffffffffffffffffff163373ffffffffffffffffffffffffffffffffffffffff161415156104d1576040517f08c379a00000000000000000000000000000000000000000000000000000000081526004018080602001828103825260178152602001807f4f6e6c792070617469656e742063616e20646f2069742e00000000000000000081525060200191505060405180910390fd5b6104da826108b0565b15156104e557600080fd5b60008290508073ffffffffffffffffffffffffffffffffffffffff16634920d55f30846040518363ffffffff167c0100000000000000000000000000000000000000000000000000000000028152600401808373ffffffffffffffffffffffffffffffffffffffff1673ffffffffffffffffffffffffffffffffffffffff16815260200182815260200192505050600060405180830381600087803b15801561058d57600080fd5b505af11580156105a1573d6000803e3d6000fd5b50505050505050565b6001600360008473ffffffffffffffffffffffffffffffffffffffff1673ffffffffffffffffffffffffffffffffffffffff16815260200190815260200160002060006101000a81548160ff02191690831515021790555060048290806001815401808255809150509060018203906000526020600020016000909192909190916101000a81548173ffffffffffffffffffffffffffffffffffffffff021916908373ffffffffffffffffffffffffffffffffffffffff1602179055505060008290508073ffffffffffffffffffffffffffffffffffffffff16637fd35db730846040518363ffffffff167c0100000000000000000000000000000000000000000000000000000000028152600401808373ffffffffffffffffffffffffffffffffffffffff1673ffffffffffffffffffffffffffffffffffffffff16815260200182815260200192505050600060405180830381600087803b15801561071057600080fd5b505af1158015610724573d6000803e3d6000fd5b50505050505050565b6000809054906101000a900473ffffffffffffffffffffffffffffffffffffffff1673ffffffffffffffffffffffffffffffffffffffff163373ffffffffffffffffffffffffffffffffffffffff1614151561078857600080fd5b610791816108b0565b151561079c57600080fd5b6000600360008373ffffffffffffffffffffffffffffffffffffffff1673ffffffffffffffffffffffffffffffffffffffff16815260200190815260200160002060006101000a81548160ff02191690831515021790555060008190508073ffffffffffffffffffffffffffffffffffffffff16637d0d6257306040518263ffffffff167c0100000000000000000000000000000000000000000000000000000000028152600401808273ffffffffffffffffffffffffffffffffffffffff1673ffffffffffffffffffffffffffffffffffffffff168152602001915050600060405180830381600087803b15801561089457600080fd5b505af11580156108a8573d6000803e3d6000fd5b505050505050565b6000600360008373ffffffffffffffffffffffffffffffffffffffff1673ffffffffffffffffffffffffffffffffffffffff16815260200190815260200160002060009054906101000a900460ff169050919050565b600061094a60048381548110151561091a57fe5b9060005260206000200160009054906101000a900473ffffffffffffffffffffffffffffffffffffffff166108b0565b15156109be576040517f08c379a00000000000000000000000000000000000000000000000000000000081526004018080602001828103825260198152602001807f446f63746f72206e6f206c6f6e67657220616c6c6f7765642e0000000000000081525060200191505060405180910390fd5b6004828154811015156109cd57fe5b9060005260206000200160009054906101000a900473ffffffffffffffffffffffffffffffffffffffff169050919050565b6000600660009054906101000a900473ffffffffffffffffffffffffffffffffffffffff1673ffffffffffffffffffffffffffffffffffffffff1663fce9512a836040518263ffffffff167c0100000000000000000000000000000000000000000000000000000000028152600401808273ffffffffffffffffffffffffffffffffffffffff1673ffffffffffffffffffffffffffffffffffffffff16815260200191505060206040518083038186803b158015610abc57600080fd5b505afa158015610ad0573d6000803e3d6000fd5b505050506040513d6020811015610ae657600080fd5b8101908080519060200190929190505050905091905056fea165627a7a723058208215566580a7549fd954f99467c7433458753384a3dadef65642cbd419b74fc60029",
  "source": "pragma solidity 0.5.3;\nimport \"./Bhagwaan.sol\";\n\n\n// contract AbstractBhagwaan{\n//     function checkDoc(address) public returns(bool);\n// }\n\ncontract AbstractDoctor {\n    function addPatient(address, bytes32) public;\n    function updatePatientKey(address, bytes32) public;\n    function removePatient(address) public;\n}\n\ncontract PatientGen {\n    address[] contracts;\n    address bhagw;\n    address user;\n    address[] contractUsers;\n\n    constructor(address bhagwaanAddrs) public payable{\n      user=msg.sender;\n      bhagw=bhagwaanAddrs;\n    }\n\n    function getPatientCount() public view returns(uint patientcount){\n      return contracts.length;\n    }\n\n    function newPatient() public returns (address newContract){\n      bool userFound = false;\n      for (uint i=0; i<contractUsers.length; i++) {\n            if (msg.sender == contractUsers[i]){\n                userFound = true;\n            }\n      }\n      if (!userFound) {\n        Patient p = new Patient(bhagw);\n        contracts.push(address(p));\n        contractUsers.push(msg.sender);\n        return address(p);\n      }\n      else return address(0);\n    }\n\n    function getLastAddress() public view returns(address latestContract){\n      return contracts[contracts.length-1];\n    }\n}\n\ncontract Patient {\n    //Address of the school administrator\n    address user;\n    mapping(bytes32 => bool) private isPrescription;\n    bytes32[] prescription;\n    mapping(address => bool) private isAllowed;\n    address[] allowed;\n    address bhag;\n    Bhagwaan a;\n\n\n    constructor(address bhagwaanAddrs) public payable{\n        user=tx.origin;\n        bhag=bhagwaanAddrs;\n        a = Bhagwaan(bhag);\n    }\n\n    function kill() public{\n        require(msg.sender == user);\n            selfdestruct(msg.sender);\n    }\n\n\n    function giveAccess(address doc, bytes32 encryptedKey) public {\n        // require(msg.sender==user);\n        // Bhagwaan a = Bhagwaan(bhag);\n        // require(a.checkDoc(doc));\n        isAllowed[doc] = true;\n        allowed.push(doc);\n        AbstractDoctor doctor = AbstractDoctor(doc);\n        doctor.addPatient(address(this), encryptedKey);\n    }\n\n    function revokeAccess(address doc) public {\n        require(msg.sender==user);\n        require(checkAllowed(doc));\n        isAllowed[doc] = false;\n\n        AbstractDoctor doctor = AbstractDoctor(doc);\n        doctor.removePatient(address(this));\n        // encryptedKeys[doc] = 0;\n    }\n\n    function updateKey(address doc, bytes32 encryptedKey) public{\n        require(msg.sender == user, \"Only patient can do it.\");\n        require(checkAllowed(doc));\n        AbstractDoctor doctor = AbstractDoctor(doc);\n        doctor.updatePatientKey(address(this), encryptedKey);\n    }\n\n    function getAllowedDocsNum() public view returns(uint){\n        return allowed.length;\n    }\n    function getAllowedDocByIndex(uint i) public view returns (address){\n        require(checkAllowed(allowed[i]), \"Doctor no longer allowed.\");\n        return allowed[i];\n    }\n\n    function checkAllowed(address doc) public view returns(bool){\n        return isAllowed[doc] ;\n    }\n\n    function pushHash(bytes32 hashvalue)public{\n        address doc = msg.sender;\n        require(checkAllowed(doc));\n        prescription.push(hashvalue);\n    }\n\n    function getNumPrescriptions() public view returns(uint){\n        return prescription.length;\n    }\n\n    function getPubKey(address doc) public view returns(bytes32) {\n        // require(a.checkDoc(doc));\n        return a.getPubKey(doc);\n    }\n    // function getRecords(address patient) public return(string){\n    //\n    // }\n\n}\n",
  "sourcePath": "/home/shikhi/EthCare/Ethereum-Healthcare/contracts/Patientgen.sol",
  "compiler": {
    "name": "solc",
    "version": "0.5.3+commit.10d17f24.Emscripten.clang"
  },
  "schemaVersion": "3.0.6",
  "updatedAt": "2019-04-15T20:14:33.675Z",
  "devdoc": {
    "methods": {}
  },
  "userdoc": {
    "methods": {}
  }
}