{
  "contractName": "Patient",
  "abi": [
    {
      "inputs": [
        {
          "name": "bhagwaanAddrs",
          "type": "address"
        }
      ],
      "payable": true,
      "stateMutability": "payable",
      "type": "constructor"
    },
    {
      "constant": false,
      "inputs": [],
      "name": "kill",
      "outputs": [],
      "payable": false,
      "stateMutability": "nonpayable",
      "type": "function"
    },
    {
      "constant": false,
      "inputs": [
        {
          "name": "doc",
          "type": "address"
        },
        {
          "name": "encryptedKey",
          "type": "bytes32"
        }
      ],
      "name": "giveAccess",
      "outputs": [],
      "payable": false,
      "stateMutability": "nonpayable",
      "type": "function"
    },
    {
      "constant": false,
      "inputs": [
        {
          "name": "doc",
          "type": "address"
        }
      ],
      "name": "revokeAccess",
      "outputs": [],
      "payable": false,
      "stateMutability": "nonpayable",
      "type": "function"
    },
    {
      "constant": false,
      "inputs": [],
      "name": "getAllowedDocsNum",
      "outputs": [
        {
          "name": "",
          "type": "uint256"
        }
      ],
      "payable": false,
      "stateMutability": "nonpayable",
      "type": "function"
    },
    {
      "constant": false,
      "inputs": [
        {
          "name": "i",
          "type": "uint256"
        }
      ],
      "name": "getAllowedDocByIndex",
      "outputs": [
        {
          "name": "",
          "type": "address"
        }
      ],
      "payable": false,
      "stateMutability": "nonpayable",
      "type": "function"
    },
    {
      "constant": false,
      "inputs": [
        {
          "name": "doc",
          "type": "address"
        }
      ],
      "name": "checkAllowed",
      "outputs": [
        {
          "name": "",
          "type": "bool"
        }
      ],
      "payable": false,
      "stateMutability": "nonpayable",
      "type": "function"
    },
    {
      "constant": false,
      "inputs": [
        {
          "name": "hashvalue",
          "type": "bytes32"
        }
      ],
      "name": "pushHash",
      "outputs": [],
      "payable": false,
      "stateMutability": "nonpayable",
      "type": "function"
    },
    {
      "constant": false,
      "inputs": [],
      "name": "getNumPrescriptions",
      "outputs": [
        {
          "name": "",
          "type": "uint256"
        }
      ],
      "payable": false,
      "stateMutability": "nonpayable",
      "type": "function"
    }
  ],
  "bytecode": "0x60806040526040516020806108fc8339810180604052602081101561002357600080fd5b8101908080519060200190929190505050326000806101000a81548173ffffffffffffffffffffffffffffffffffffffff021916908373ffffffffffffffffffffffffffffffffffffffff16021790555080600660006101000a81548173ffffffffffffffffffffffffffffffffffffffff021916908373ffffffffffffffffffffffffffffffffffffffff16021790555050610837806100c56000396000f3fe608060405234801561001057600080fd5b50600436106100a5576000357c01000000000000000000000000000000000000000000000000000000009004806385c53cf11161007857806385c53cf11461011e57806385e685311461016c578063bbbd2d70146101b0578063c16519cf1461020c576100a5565b80631c45272e146100aa5780632bb60ac1146100c85780632fbbc7f1146100f657806341c0e1b514610114575b600080fd5b6100b261027a565b6040518082815260200191505060405180910390f35b6100f4600480360360208110156100de57600080fd5b8101908080359060200190929190505050610287565b005b6100fe6102d0565b6040518082815260200191505060405180910390f35b61011c6102dd565b005b61016a6004803603604081101561013457600080fd5b81019080803573ffffffffffffffffffffffffffffffffffffffff16906020019092919080359060200190929190505050610351565b005b6101ae6004803603602081101561018257600080fd5b81019080803573ffffffffffffffffffffffffffffffffffffffff169060200190929190505050610674565b005b6101f2600480360360208110156101c657600080fd5b81019080803573ffffffffffffffffffffffffffffffffffffffff169060200190929190505050610772565b604051808215151515815260200191505060405180910390f35b6102386004803603602081101561022257600080fd5b81019080803590602001909291905050506107c8565b604051808273ffffffffffffffffffffffffffffffffffffffff1673ffffffffffffffffffffffffffffffffffffffff16815260200191505060405180910390f35b6000600280549050905090565b600033905061029581610772565b15156102a057600080fd5b60028290806001815401808255809150509060018203906000526020600020016000909192909190915055505050565b6000600480549050905090565b6000809054906101000a900473ffffffffffffffffffffffffffffffffffffffff1673ffffffffffffffffffffffffffffffffffffffff163373ffffffffffffffffffffffffffffffffffffffff1614151561033857600080fd5b3373ffffffffffffffffffffffffffffffffffffffff16ff5b6000809054906101000a900473ffffffffffffffffffffffffffffffffffffffff1673ffffffffffffffffffffffffffffffffffffffff163373ffffffffffffffffffffffffffffffffffffffff161415156103ac57600080fd5b6000600660009054906101000a900473ffffffffffffffffffffffffffffffffffffffff1690508073ffffffffffffffffffffffffffffffffffffffff1663151dd18e846040518263ffffffff167c0100000000000000000000000000000000000000000000000000000000028152600401808273ffffffffffffffffffffffffffffffffffffffff1673ffffffffffffffffffffffffffffffffffffffff168152602001915050602060405180830381600087803b15801561046e57600080fd5b505af1158015610482573d6000803e3d6000fd5b505050506040513d602081101561049857600080fd5b810190808051906020019092919050505015156104b457600080fd5b6001600360008573ffffffffffffffffffffffffffffffffffffffff1673ffffffffffffffffffffffffffffffffffffffff16815260200190815260200160002060006101000a81548160ff02191690831515021790555081600560008573ffffffffffffffffffffffffffffffffffffffff1673ffffffffffffffffffffffffffffffffffffffff1681526020019081526020016000208190555060048390806001815401808255809150509060018203906000526020600020016000909192909190916101000a81548173ffffffffffffffffffffffffffffffffffffffff021916908373ffffffffffffffffffffffffffffffffffffffff1602179055505060008390508073ffffffffffffffffffffffffffffffffffffffff16636d263ceb306040518263ffffffff167c0100000000000000000000000000000000000000000000000000000000028152600401808273ffffffffffffffffffffffffffffffffffffffff1673ffffffffffffffffffffffffffffffffffffffff168152602001915050600060405180830381600087803b15801561065657600080fd5b505af115801561066a573d6000803e3d6000fd5b5050505050505050565b6000809054906101000a900473ffffffffffffffffffffffffffffffffffffffff1673ffffffffffffffffffffffffffffffffffffffff163373ffffffffffffffffffffffffffffffffffffffff161415156106cf57600080fd5b6000600360008373ffffffffffffffffffffffffffffffffffffffff1673ffffffffffffffffffffffffffffffffffffffff16815260200190815260200160002060006101000a81548160ff0219169083151502179055506000600102600560008373ffffffffffffffffffffffffffffffffffffffff1673ffffffffffffffffffffffffffffffffffffffff1681526020019081526020016000208190555050565b6000600360008373ffffffffffffffffffffffffffffffffffffffff1673ffffffffffffffffffffffffffffffffffffffff16815260200190815260200160002060009054906101000a900460ff169050919050565b60006004828154811015156107d957fe5b9060005260206000200160009054906101000a900473ffffffffffffffffffffffffffffffffffffffff16905091905056fea165627a7a72305820b00fd3406ad1d4588138caa4aeb1b1fb9387b270d6e61e657a581be65c286dc60029",
  "source": "pragma solidity 0.5.3;\nimport \"./Bhagwaan.sol\";\n\n\n// contract AbstractBhagwaan{\n//     function checkDoc(address) public returns(bool);\n// }\n\ncontract AbstractDoctor {\n    function addPatient(address) public;\n}\n\ncontract PatientGen {\n    address[] contracts;\n    address bhagw;\n    address user;\n\n    constructor(address bhagwaanAddrs) public payable{\n      user=msg.sender;\n      bhagw=bhagwaanAddrs;\n    }\n\n    function getPatientCount() public returns(uint patientcount){\n      return contracts.length;\n    }\n\n    function newPatient() public returns (address newContract){\n      Patient p = new Patient(bhagw);\n      contracts.push(address(p));\n      return address(p);\n    }\n\n    function getLastAddress() public returns(address latestContract){\n      return contracts[contracts.length-1];\n    }\n}\n\ncontract Patient {\n    //Address of the school administrator\n    address user;\n    mapping(bytes32 => bool) private isPrescription;\n    bytes32[] prescription;\n    mapping(address => bool) private isAllowed;\n    address[] allowed;\n    mapping(address => bytes32) encryptedKeys;//corresponding encrypted symmetric key for doctors\n    address bhag;\n\n\n    constructor(address bhagwaanAddrs) public payable{\n        user=tx.origin;\n        bhag=bhagwaanAddrs;\n    }\n\n    function kill() public{\n        require(msg.sender == user);\n            selfdestruct(msg.sender);\n    }\n\n\n    function giveAccess(address doc, bytes32 encryptedKey) public {\n        require(msg.sender==user);\n        Bhagwaan a = Bhagwaan(bhag);\n        require(a.checkDoc(doc));\n        isAllowed[doc] = true;\n        encryptedKeys[doc] = encryptedKey;\n        allowed.push(doc);\n        AbstractDoctor doctor = AbstractDoctor(doc);\n        doctor.addPatient(address(this));\n    }\n\n    function revokeAccess(address doc) public {\n        require(msg.sender==user);\n        isAllowed[doc] = false;\n        encryptedKeys[doc] = 0;\n    }\n\n    function getAllowedDocsNum() public returns(uint){\n      return allowed.length;\n    }\n    function getAllowedDocByIndex(uint i) public returns (address){\n      return allowed[i];\n    }\n\n    // function updateKey(bytes32 newKey) private{\n    //\n    // }\n\n    function checkAllowed(address doc) public returns(bool){\n        return isAllowed[doc] ;\n    }\n\n    function pushHash(bytes32 hashvalue)public{\n        address doc = msg.sender;\n        require(checkAllowed(doc));\n        prescription.push(hashvalue);\n    }\n\n    function getNumPrescriptions() public returns(uint){\n        return prescription.length;\n    }\n\n    // function getRecords(address patient) public return(string){\n    //\n    // }\n\n}\n",
  "sourcePath": "/home/shikhi/EthCare/Ethereum-Healthcare/contracts/Patientgen.sol",
  "compiler": {
    "name": "solc",
    "version": "0.5.3+commit.10d17f24.Emscripten.clang"
  },
  "schemaVersion": "3.0.6",
  "updatedAt": "2019-04-15T10:26:27.549Z",
  "devdoc": {
    "methods": {}
  },
  "userdoc": {
    "methods": {}
  }
}